{
  "_format": "hh3-artifact-1",
  "contractName": "MappableGames",
  "sourceName": "contracts/MappableGames.sol",
  "abi": [
    {
      "anonymous": false,
      "inputs": [
        {
          "indexed": true,
          "internalType": "address",
          "name": "player",
          "type": "address"
        },
        {
          "indexed": true,
          "internalType": "uint256",
          "name": "gameId",
          "type": "uint256"
        },
        {
          "indexed": false,
          "internalType": "bool",
          "name": "won",
          "type": "bool"
        },
        {
          "indexed": false,
          "internalType": "uint256",
          "name": "reward",
          "type": "uint256"
        }
      ],
      "name": "GameCompleted",
      "type": "event"
    },
    {
      "anonymous": false,
      "inputs": [
        {
          "indexed": true,
          "internalType": "address",
          "name": "player",
          "type": "address"
        },
        {
          "indexed": true,
          "internalType": "uint256",
          "name": "gameId",
          "type": "uint256"
        },
        {
          "indexed": false,
          "internalType": "uint256",
          "name": "betAmount",
          "type": "uint256"
        }
      ],
      "name": "GameStarted",
      "type": "event"
    },
    {
      "inputs": [
        {
          "internalType": "uint256",
          "name": "gameId",
          "type": "uint256"
        },
        {
          "internalType": "bool",
          "name": "won",
          "type": "bool"
        }
      ],
      "name": "completeGame",
      "outputs": [],
      "stateMutability": "nonpayable",
      "type": "function"
    },
    {
      "inputs": [],
      "name": "gameCounter",
      "outputs": [
        {
          "internalType": "uint256",
          "name": "",
          "type": "uint256"
        }
      ],
      "stateMutability": "view",
      "type": "function"
    },
    {
      "inputs": [
        {
          "internalType": "uint256",
          "name": "",
          "type": "uint256"
        }
      ],
      "name": "gamePlayer",
      "outputs": [
        {
          "internalType": "address",
          "name": "",
          "type": "address"
        }
      ],
      "stateMutability": "view",
      "type": "function"
    },
    {
      "inputs": [
        {
          "internalType": "address",
          "name": "",
          "type": "address"
        }
      ],
      "name": "playerGamesCount",
      "outputs": [
        {
          "internalType": "uint256",
          "name": "",
          "type": "uint256"
        }
      ],
      "stateMutability": "view",
      "type": "function"
    },
    {
      "inputs": [
        {
          "internalType": "uint256",
          "name": "gameId",
          "type": "uint256"
        }
      ],
      "name": "startGame",
      "outputs": [],
      "stateMutability": "payable",
      "type": "function"
    },
    {
      "inputs": [],
      "name": "totalGames",
      "outputs": [
        {
          "internalType": "uint256",
          "name": "",
          "type": "uint256"
        }
      ],
      "stateMutability": "view",
      "type": "function"
    }
  ],
  "bytecode": "0x6080604052348015600e575f5ffd5b506104738061001c5f395ff3fe608060405260043610610054575f3560e01c80632c4e591b146100585780632e0be39a14610080578063aba1489c14610095578063b777f996146100e1578063b81f064a1461010c578063e5ed1d591461012d575b5f5ffd5b348015610063575f5ffd5b5061006d60025481565b6040519081526020015b60405180910390f35b34801561008b575f5ffd5b5061006d60035481565b3480156100a0575f5ffd5b506100c96100af366004610384565b5f602081905290815260409020546001600160a01b031681565b6040516001600160a01b039091168152602001610077565b3480156100ec575f5ffd5b5061006d6100fb36600461039b565b60016020525f908152604090205481565b348015610117575f5ffd5b5061012b6101263660046103c8565b610140565b005b61012b61013b366004610384565b610248565b5f828152602081905260409020546001600160a01b0316331461019a5760405162461bcd60e51b815260206004820152600d60248201526c4e6f7420796f75722067616d6560981b60448201526064015b60405180910390fd5b335f826101a7575f6101b2565b6101b26002476103fa565b90508280156101c057505f81115b156101fa576040516001600160a01b0383169082156108fc029083905f818181858888f193505050501580156101f8573d5f5f3e3d5ffd5b505b6040805184151581526020810183905285916001600160a01b038516917fdca58a15c3fde23eee01dac9d024be6d2fd4782daf16273a9bed1ed0808c1751910160405180910390a350505050565b5f341161028c5760405162461bcd60e51b81526020600482015260126024820152714d7573742062657420736f6d657468696e6760701b6044820152606401610191565b5f818152602081905260409020546001600160a01b0316156102e75760405162461bcd60e51b815260206004820152601460248201527311d85b5948185b1c9958591e481cdd185c9d195960621b6044820152606401610191565b5f8181526020818152604080832080546001600160a01b0319163390811790915583526001909152812080549161031d83610419565b909155505060028054905f61033183610419565b909155505060038054905f61034583610419565b9091555050604051348152819033907f2ebc740a82c0c6454a29c8aa9db57c66257e2f17d38a783c83c83dd49f52e0fb9060200160405180910390a350565b5f60208284031215610394575f5ffd5b5035919050565b5f602082840312156103ab575f5ffd5b81356001600160a01b03811681146103c1575f5ffd5b9392505050565b5f5f604083850312156103d9575f5ffd5b82359150602083013580151581146103ef575f5ffd5b809150509250929050565b5f8261041457634e487b7160e01b5f52601260045260245ffd5b500490565b5f6001820161043657634e487b7160e01b5f52601160045260245ffd5b506001019056fea2646970667358221220856da561348b011877d80f26cbaceaa05266f76f50ae022dedbab3980daf171064736f6c634300081c0033",
  "linkReferences": {},
  "deployedLinkReferences": {},
  "immutableReferences": {},
  "inputSourceName": "project/contracts/MappableGames.sol",
  "buildInfoId": "solc-0_8_28-748b9ea91be6fe98ec643a813dfb049a84ac64e2"
}