{
  "_format": "hh3-artifact-1",
  "contractName": "MappableStores",
  "sourceName": "contracts/MappableStores.sol",
  "abi": [
    {
      "anonymous": false,
      "inputs": [
        {
          "indexed": true,
          "internalType": "address",
          "name": "seller",
          "type": "address"
        },
        {
          "indexed": true,
          "internalType": "uint256",
          "name": "itemId",
          "type": "uint256"
        },
        {
          "indexed": false,
          "internalType": "uint256",
          "name": "price",
          "type": "uint256"
        },
        {
          "indexed": false,
          "internalType": "string",
          "name": "itemName",
          "type": "string"
        }
      ],
      "name": "ItemListed",
      "type": "event"
    },
    {
      "anonymous": false,
      "inputs": [
        {
          "indexed": true,
          "internalType": "address",
          "name": "buyer",
          "type": "address"
        },
        {
          "indexed": true,
          "internalType": "uint256",
          "name": "itemId",
          "type": "uint256"
        },
        {
          "indexed": false,
          "internalType": "uint256",
          "name": "amount",
          "type": "uint256"
        },
        {
          "indexed": false,
          "internalType": "uint256",
          "name": "price",
          "type": "uint256"
        }
      ],
      "name": "PurchaseMade",
      "type": "event"
    },
    {
      "inputs": [],
      "name": "itemCounter",
      "outputs": [
        {
          "internalType": "uint256",
          "name": "",
          "type": "uint256"
        }
      ],
      "stateMutability": "view",
      "type": "function"
    },
    {
      "inputs": [
        {
          "internalType": "uint256",
          "name": "",
          "type": "uint256"
        }
      ],
      "name": "items",
      "outputs": [
        {
          "internalType": "address",
          "name": "seller",
          "type": "address"
        },
        {
          "internalType": "uint256",
          "name": "price",
          "type": "uint256"
        },
        {
          "internalType": "string",
          "name": "name",
          "type": "string"
        },
        {
          "internalType": "bool",
          "name": "exists",
          "type": "bool"
        }
      ],
      "stateMutability": "view",
      "type": "function"
    },
    {
      "inputs": [
        {
          "internalType": "string",
          "name": "itemName",
          "type": "string"
        },
        {
          "internalType": "uint256",
          "name": "price",
          "type": "uint256"
        }
      ],
      "name": "listItem",
      "outputs": [],
      "stateMutability": "nonpayable",
      "type": "function"
    },
    {
      "inputs": [
        {
          "internalType": "uint256",
          "name": "itemId",
          "type": "uint256"
        },
        {
          "internalType": "uint256",
          "name": "amount",
          "type": "uint256"
        }
      ],
      "name": "purchaseItem",
      "outputs": [],
      "stateMutability": "payable",
      "type": "function"
    },
    {
      "inputs": [],
      "name": "totalItems",
      "outputs": [
        {
          "internalType": "uint256",
          "name": "",
          "type": "uint256"
        }
      ],
      "stateMutability": "view",
      "type": "function"
    },
    {
      "inputs": [
        {
          "internalType": "address",
          "name": "",
          "type": "address"
        }
      ],
      "name": "userPurchaseCount",
      "outputs": [
        {
          "internalType": "uint256",
          "name": "",
          "type": "uint256"
        }
      ],
      "stateMutability": "view",
      "type": "function"
    }
  ],
  "bytecode": "0x6080604052348015600e575f5ffd5b5061082a8061001c5f395ff3fe608060405260043610610054575f3560e01c80631d0747a0146100585780632799276d146100965780636d6d00ed146100ab5780638511c937146100c0578063bfb231d2146100e1578063e067569814610110575b5f5ffd5b348015610063575f5ffd5b506100836100723660046104a5565b60016020525f908152604090205481565b6040519081526020015b60405180910390f35b3480156100a1575f5ffd5b5061008360025481565b3480156100b6575f5ffd5b5061008360035481565b3480156100cb575f5ffd5b506100df6100da3660046104e6565b610123565b005b3480156100ec575f5ffd5b506101006100fb36600461059b565b61027b565b60405161008d94939291906105e0565b6100df61011e366004610619565b610336565b5f81116101775760405162461bcd60e51b815260206004820152601c60248201527f5072696365206d7573742062652067726561746572207468616e20300000000060448201526064015b60405180910390fd5b5f6003546001610187919061064d565b6040805160808101825233815260208082018681528284018881526001606085018190525f8781529384905294909220835181546001600160a01b0319166001600160a01b03909116178155905193810193909355519293509160028201906101f090826106ea565b50606091909101516003918201805460ff19169115159190911790558054905f610219836107a5565b909155505060028054905f61022d836107a5565b919050555080336001600160a01b03167f1ed44a0ab8ccf13f32d36e3939f4203bdbb768a78cad58bfdc7a540e59492b10848660405161026e9291906107bd565b60405180910390a3505050565b5f602081905290815260409020805460018201546002830180546001600160a01b039093169391926102ac90610666565b80601f01602080910402602001604051908101604052809291908181526020018280546102d890610666565b80156103235780601f106102fa57610100808354040283529160200191610323565b820191905f5260205f20905b81548152906001019060200180831161030657829003601f168201915b5050506003909301549192505060ff1684565b5f8281526020819052604090206003015460ff1661038c5760405162461bcd60e51b8152602060048201526013602482015272125d195b48191bd95cc81b9bdd08195e1a5cdd606a1b604482015260640161016e565b5f828152602081905260409020600101546103a89082906107dd565b3410156103ee5760405162461bcd60e51b8152602060048201526014602482015273125b9cdd59999a58da595b9d081c185e5b595b9d60621b604482015260640161016e565b335f818152600160205260408120805484929061040c90849061064d565b90915550505f838152602081905260408082205490516001600160a01b03909116913480156108fc02929091818181858888f19350505050158015610453573d5f5f3e3d5ffd5b505f83815260208181526040918290206001015482518581529182015284916001600160a01b038416917f96e1afaf9f676d0fd18dff36a27cbe9b9b9eb34e56423fb6224a9927ea8f6ffb910161026e565b5f602082840312156104b5575f5ffd5b81356001600160a01b03811681146104cb575f5ffd5b9392505050565b634e487b7160e01b5f52604160045260245ffd5b5f5f604083850312156104f7575f5ffd5b823567ffffffffffffffff81111561050d575f5ffd5b8301601f8101851361051d575f5ffd5b803567ffffffffffffffff811115610537576105376104d2565b604051601f8201601f19908116603f0116810167ffffffffffffffff81118282101715610566576105666104d2565b60405281815282820160200187101561057d575f5ffd5b816020840160208301375f6020928201830152969401359450505050565b5f602082840312156105ab575f5ffd5b5035919050565b5f81518084528060208401602086015e5f602082860101526020601f19601f83011685010191505092915050565b60018060a01b0385168152836020820152608060408201525f61060660808301856105b2565b9050821515606083015295945050505050565b5f5f6040838503121561062a575f5ffd5b50508035926020909101359150565b634e487b7160e01b5f52601160045260245ffd5b8082018082111561066057610660610639565b92915050565b600181811c9082168061067a57607f821691505b60208210810361069857634e487b7160e01b5f52602260045260245ffd5b50919050565b601f8211156106e557805f5260205f20601f840160051c810160208510156106c35750805b601f840160051c820191505b818110156106e2575f81556001016106cf565b50505b505050565b815167ffffffffffffffff811115610704576107046104d2565b610718816107128454610666565b8461069e565b6020601f82116001811461074a575f83156107335750848201515b5f19600385901b1c1916600184901b1784556106e2565b5f84815260208120601f198516915b828110156107795787850151825560209485019460019092019101610759565b508482101561079657868401515f19600387901b60f8161c191681555b50505050600190811b01905550565b5f600182016107b6576107b6610639565b5060010190565b828152604060208201525f6107d560408301846105b2565b949350505050565b80820281158282048414176106605761066061063956fea2646970667358221220861d6a7fdce74351f6b4097860c027403f04d9674b0040d1b9e5f9d50d12493f64736f6c634300081c0033",
  "linkReferences": {},
  "deployedLinkReferences": {},
  "immutableReferences": {},
  "inputSourceName": "project/contracts/MappableStores.sol",
  "buildInfoId": "solc-0_8_28-748b9ea91be6fe98ec643a813dfb049a84ac64e2"
}